{
  "contractName": "OneTimePurchase",
  "abi": [
    {
      "constant": true,
      "inputs": [],
      "name": "seller",
      "outputs": [
        {
          "name": "",
          "type": "address"
        }
      ],
      "payable": false,
      "stateMutability": "view",
      "type": "function"
    },
    {
      "constant": true,
      "inputs": [
        {
          "name": "",
          "type": "address"
        }
      ],
      "name": "customers",
      "outputs": [
        {
          "name": "",
          "type": "uint256"
        }
      ],
      "payable": false,
      "stateMutability": "view",
      "type": "function"
    },
    {
      "constant": true,
      "inputs": [],
      "name": "description",
      "outputs": [
        {
          "name": "",
          "type": "string"
        }
      ],
      "payable": false,
      "stateMutability": "view",
      "type": "function"
    },
    {
      "constant": true,
      "inputs": [],
      "name": "numPurchased",
      "outputs": [
        {
          "name": "",
          "type": "uint256"
        }
      ],
      "payable": false,
      "stateMutability": "view",
      "type": "function"
    },
    {
      "constant": true,
      "inputs": [],
      "name": "price",
      "outputs": [
        {
          "name": "",
          "type": "uint256"
        }
      ],
      "payable": false,
      "stateMutability": "view",
      "type": "function"
    },
    {
      "inputs": [
        {
          "name": "_price",
          "type": "uint256"
        },
        {
          "name": "_description",
          "type": "string"
        },
        {
          "name": "_seller",
          "type": "address"
        }
      ],
      "payable": false,
      "stateMutability": "nonpayable",
      "type": "constructor"
    },
    {
      "constant": true,
      "inputs": [
        {
          "name": "_customer",
          "type": "address"
        }
      ],
      "name": "checkCustomer",
      "outputs": [
        {
          "name": "_numPurchased",
          "type": "uint256"
        }
      ],
      "payable": false,
      "stateMutability": "view",
      "type": "function"
    },
    {
      "constant": false,
      "inputs": [],
      "name": "buyItem",
      "outputs": [],
      "payable": true,
      "stateMutability": "payable",
      "type": "function"
    },
    {
      "constant": false,
      "inputs": [],
      "name": "withdraw",
      "outputs": [],
      "payable": false,
      "stateMutability": "nonpayable",
      "type": "function"
    },
    {
      "constant": false,
      "inputs": [],
      "name": "endSale",
      "outputs": [],
      "payable": false,
      "stateMutability": "nonpayable",
      "type": "function"
    }
  ],
  "bytecode": "0x608060405234801561001057600080fd5b5060405161078f38038061078f8339810180604052810190808051906020019092919080518201929190602001805190602001909291905050508260008190555081600190805190602001906100679291906100b1565b5080600360006101000a81548173ffffffffffffffffffffffffffffffffffffffff021916908373ffffffffffffffffffffffffffffffffffffffff160217905550505050610156565b828054600181600116156101000203166002900490600052602060002090601f016020900481019282601f106100f257805160ff1916838001178555610120565b82800160010185558215610120579182015b8281111561011f578251825591602001919060010190610104565b5b50905061012d9190610131565b5090565b61015391905b8082111561014f576000816000905550600101610137565b5090565b90565b61062a806101656000396000f300608060405260043610610099576000357c0100000000000000000000000000000000000000000000000000000000900463ffffffff16806308551a531461009e578063336989ae146100f5578063380d831b1461014c5780633ccfd60b146101635780637284e4161461017a578063795612d61461020a5780639971711a14610214578063a035b1fe1461023f578063a197c0421461026a575b600080fd5b3480156100aa57600080fd5b506100b36102c1565b604051808273ffffffffffffffffffffffffffffffffffffffff1673ffffffffffffffffffffffffffffffffffffffff16815260200191505060405180910390f35b34801561010157600080fd5b50610136600480360381019080803573ffffffffffffffffffffffffffffffffffffffff1690602001909291905050506102e7565b6040518082815260200191505060405180910390f35b34801561015857600080fd5b506101616102ff565b005b34801561016f57600080fd5b50610178610396565b005b34801561018657600080fd5b5061018f61049a565b6040518080602001828103825283818151815260200191508051906020019080838360005b838110156101cf5780820151818401526020810190506101b4565b50505050905090810190601f1680156101fc5780820380516001836020036101000a031916815260200191505b509250505060405180910390f35b610212610538565b005b34801561022057600080fd5b506102296105a9565b6040518082815260200191505060405180910390f35b34801561024b57600080fd5b506102546105af565b6040518082815260200191505060405180910390f35b34801561027657600080fd5b506102ab600480360381019080803573ffffffffffffffffffffffffffffffffffffffff1690602001909291905050506105b5565b6040518082815260200191505060405180910390f35b600360009054906101000a900473ffffffffffffffffffffffffffffffffffffffff1681565b60046020528060005260406000206000915090505481565b600360009054906101000a900473ffffffffffffffffffffffffffffffffffffffff1673ffffffffffffffffffffffffffffffffffffffff163373ffffffffffffffffffffffffffffffffffffffff1614151561035b57600080fd5b600360009054906101000a900473ffffffffffffffffffffffffffffffffffffffff1673ffffffffffffffffffffffffffffffffffffffff16ff5b60003073ffffffffffffffffffffffffffffffffffffffff16311115156103bc57600080fd5b600360009054906101000a900473ffffffffffffffffffffffffffffffffffffffff1673ffffffffffffffffffffffffffffffffffffffff163373ffffffffffffffffffffffffffffffffffffffff1614151561041857600080fd5b600360009054906101000a900473ffffffffffffffffffffffffffffffffffffffff1673ffffffffffffffffffffffffffffffffffffffff166108fc3073ffffffffffffffffffffffffffffffffffffffff16319081150290604051600060405180830381858888f19350505050158015610497573d6000803e3d6000fd5b50565b60018054600181600116156101000203166002900480601f0160208091040260200160405190810160405280929190818152602001828054600181600116156101000203166002900480156105305780601f1061050557610100808354040283529160200191610530565b820191906000526020600020905b81548152906001019060200180831161051357829003601f168201915b505050505081565b6000543414151561054857600080fd5b6001600460003373ffffffffffffffffffffffffffffffffffffffff1673ffffffffffffffffffffffffffffffffffffffff168152602001908152602001600020600082825401925050819055506001600260008282540192505081905550565b60025481565b60005481565b6000600460008373ffffffffffffffffffffffffffffffffffffffff1673ffffffffffffffffffffffffffffffffffffffff1681526020019081526020016000205490509190505600a165627a7a72305820654a5fba2d7a0c3491d87f27cf781676f484358e6ebb57fc7afde14548ae82ec0029",
  "source": "pragma solidity ^0.4.22;\n\ncontract OneTimePurchase {\n\n    uint public price;\n    string public description;\n    uint public numPurchased;\n    address public seller;\n    mapping (address => uint) public customers;\n\n    constructor(uint _price, string _description, address _seller) public {\n        price = _price;\n        description = _description;\n        seller = _seller;\n    }\n\n    function checkCustomer(address _customer) public view returns (uint _numPurchased) {\n        return customers[_customer];\n    }\n\n    function buyItem() payable public {\n        require(msg.value == price);\n        customers[msg.sender] += 1;\n        numPurchased += 1;\n    }\n\n    function withdraw() public {\n        require(address(this).balance > 0);\n        require(msg.sender == seller);\n        seller.transfer(address(this).balance);\n    }\n\n    function endSale() public {\n        require(msg.sender == seller);\n        selfdestruct(seller);\n    }\n\n}",
  "sourcePath": "/Users/WilliamHuang/Developer/Job-Development/BitNation/Initial Dapps/contracts/OneTimePurchase.sol",
  "compiler": {
    "name": "solc",
    "version": "0.4.24+commit.e67f0147.Emscripten.clang"
  },
  "schemaVersion": "2.0.0",
  "updatedAt": "2018-05-22T22:39:30.926Z"
}