{
  "contractName": "PatEscrow",
  "abi": [
    {
      "inputs": [
        {
          "name": "_token",
          "type": "address"
        },
        {
          "name": "_price",
          "type": "uint256"
        },
        {
          "name": "_tokenAmount",
          "type": "uint256"
        },
        {
          "name": "_buyer",
          "type": "address"
        }
      ],
      "payable": false,
      "stateMutability": "nonpayable",
      "type": "constructor"
    },
    {
      "payable": false,
      "stateMutability": "nonpayable",
      "type": "fallback"
    },
    {
      "constant": false,
      "inputs": [
        {
          "name": "_owner",
          "type": "address"
        }
      ],
      "name": "setOwner",
      "outputs": [],
      "payable": false,
      "stateMutability": "nonpayable",
      "type": "function"
    }
  ],
  "bytecode": "0x608060405234801561001057600080fd5b506040516080806104b883398101806040528101908080519060200190929190805190602001909291908051906020019092919080519060200190929190505050336000806101000a81548173ffffffffffffffffffffffffffffffffffffffff021916908373ffffffffffffffffffffffffffffffffffffffff16021790555083600260006101000a81548173ffffffffffffffffffffffffffffffffffffffff021916908373ffffffffffffffffffffffffffffffffffffffff1602179055508260048190555081600381905550505050506103c5806100f36000396000f300608060405260043610610041576000357c0100000000000000000000000000000000000000000000000000000000900463ffffffff16806313af4035146102bd575b34801561004d57600080fd5b506000808191508173ffffffffffffffffffffffffffffffffffffffff166370a08231306040518263ffffffff167c0100000000000000000000000000000000000000000000000000000000028152600401808273ffffffffffffffffffffffffffffffffffffffff1673ffffffffffffffffffffffffffffffffffffffff168152602001915050602060405180830381600087803b1580156100ef57600080fd5b505af1158015610103573d6000803e3d6000fd5b505050506040513d602081101561011957600080fd5b810190808051906020019092919050505090506003548114151561013c57600080fd5b6004543414151561014c57600080fd5b8173ffffffffffffffffffffffffffffffffffffffff1663a9059cbb600160009054906101000a900473ffffffffffffffffffffffffffffffffffffffff166003546040518363ffffffff167c0100000000000000000000000000000000000000000000000000000000028152600401808373ffffffffffffffffffffffffffffffffffffffff1673ffffffffffffffffffffffffffffffffffffffff16815260200182815260200192505050602060405180830381600087803b15801561021357600080fd5b505af1158015610227573d6000803e3d6000fd5b505050506040513d602081101561023d57600080fd5b8101908080519060200190929190505050506000809054906101000a900473ffffffffffffffffffffffffffffffffffffffff1673ffffffffffffffffffffffffffffffffffffffff166108fc6004549081150290604051600060405180830381858888f193505050501580156102b8573d6000803e3d6000fd5b505050005b3480156102c957600080fd5b506102fe600480360381019080803573ffffffffffffffffffffffffffffffffffffffff169060200190929190505050610300565b005b6000809054906101000a900473ffffffffffffffffffffffffffffffffffffffff1673ffffffffffffffffffffffffffffffffffffffff163373ffffffffffffffffffffffffffffffffffffffff16141561039657806000806101000a81548173ffffffffffffffffffffffffffffffffffffffff021916908373ffffffffffffffffffffffffffffffffffffffff1602179055505b505600a165627a7a7230582008192c1e175b8f437d05c6616e6600c83f6b2d88638f5d99d897397ec082cde40029",
  "source": "//\n// A contract for running an escrow service for Ethereum token-contracts\n//\n// Supports the \"standardized token API\" as described in https://github.com/ethereum/wiki/wiki/Standardized_Contract_APIs\n//\n// To create an escrow request, follow these steps:\n// 1. Call the create() method for setup\n// 2. Transfer the tokens to the escrow contract\n//\n// The recipient can make a simple Ether transfer to get the tokens released to his address.\n//\n// The buyer pays all the fees (including gas).\n//\n\ncontract IToken {\n    function balanceOf(address _address) constant returns (uint balance);\n    function transfer(address _to, uint _value) returns (bool success);\n}\n\ncontract PatEscrow {\n    address owner;\n    address buyer;\n    address token;           // address of the token contract\n    uint tokenAmount;        // number of tokens requested\n    uint price;              // price to be paid by buyer\n\n    modifier owneronly { if (msg.sender == owner) _; }\n    function setOwner(address _owner) owneronly {\n        owner = _owner;\n    }\n\n    function PatEscrow(address _token, uint _price, uint _tokenAmount, address _buyer) {\n        owner = msg.sender;\n        token = _token;\n        price = _price;\n        tokenAmount = _tokenAmount;\n    }\n\n    // Incoming transfer from the buyer\n    function() {\n\n        IToken token = IToken(token);\n\n        // Check the token contract if we have been issued tokens already\n        uint balance = token.balanceOf(this);\n\n        require(balance == tokenAmount);\n        require(msg.value == price);\n\n        // Transfer tokens to buyer\n        token.transfer(buyer, tokenAmount);\n\n        // Transfer money to seller\n        owner.transfer(price);\n\n    }\n}",
  "sourcePath": "/Users/WilliamHuang/Developer/Job-Development/BitNation/specs/Initial Dapps/contracts/PATEscrow.sol",
  "compiler": {
    "name": "solc",
    "version": "0.4.24+commit.e67f0147.Emscripten.clang"
  },
  "schemaVersion": "2.0.0",
  "updatedAt": "2018-06-30T00:07:05.279Z"
}