{
  "contractName": "Subscription",
  "abi": [
    {
      "constant": true,
      "inputs": [],
      "name": "numPayments",
      "outputs": [
        {
          "name": "",
          "type": "uint256"
        }
      ],
      "payable": false,
      "stateMutability": "view",
      "type": "function"
    },
    {
      "constant": true,
      "inputs": [],
      "name": "owner",
      "outputs": [
        {
          "name": "",
          "type": "address"
        }
      ],
      "payable": false,
      "stateMutability": "view",
      "type": "function"
    },
    {
      "constant": true,
      "inputs": [],
      "name": "cancellable",
      "outputs": [
        {
          "name": "",
          "type": "bool"
        }
      ],
      "payable": false,
      "stateMutability": "view",
      "type": "function"
    },
    {
      "constant": true,
      "inputs": [],
      "name": "unitTime",
      "outputs": [
        {
          "name": "",
          "type": "uint256"
        }
      ],
      "payable": false,
      "stateMutability": "view",
      "type": "function"
    },
    {
      "constant": true,
      "inputs": [],
      "name": "unitPrice",
      "outputs": [
        {
          "name": "",
          "type": "uint256"
        }
      ],
      "payable": false,
      "stateMutability": "view",
      "type": "function"
    },
    {
      "inputs": [
        {
          "name": "_unitPrice",
          "type": "uint256"
        },
        {
          "name": "_numPayments",
          "type": "uint256"
        },
        {
          "name": "_cancellable",
          "type": "bool"
        },
        {
          "name": "_unitTime",
          "type": "uint256"
        }
      ],
      "payable": false,
      "stateMutability": "nonpayable",
      "type": "constructor"
    },
    {
      "anonymous": false,
      "inputs": [
        {
          "indexed": false,
          "name": "amount",
          "type": "uint256"
        },
        {
          "indexed": false,
          "name": "buyer",
          "type": "address"
        }
      ],
      "name": "SubscriptionCharged",
      "type": "event"
    },
    {
      "anonymous": false,
      "inputs": [
        {
          "indexed": false,
          "name": "totalAmount",
          "type": "uint256"
        },
        {
          "indexed": false,
          "name": "numPayments",
          "type": "uint256"
        },
        {
          "indexed": false,
          "name": "cancellable",
          "type": "bool"
        },
        {
          "indexed": false,
          "name": "buyer",
          "type": "address"
        }
      ],
      "name": "SubscriptionStarted",
      "type": "event"
    },
    {
      "anonymous": false,
      "inputs": [
        {
          "indexed": false,
          "name": "totalAmount",
          "type": "uint256"
        },
        {
          "indexed": false,
          "name": "buyer",
          "type": "address"
        }
      ],
      "name": "SubscriptionEnded",
      "type": "event"
    },
    {
      "constant": false,
      "inputs": [],
      "name": "buySubscription",
      "outputs": [],
      "payable": true,
      "stateMutability": "payable",
      "type": "function"
    },
    {
      "constant": false,
      "inputs": [],
      "name": "collectSubscription",
      "outputs": [],
      "payable": false,
      "stateMutability": "nonpayable",
      "type": "function"
    },
    {
      "constant": false,
      "inputs": [],
      "name": "cancelSubscription",
      "outputs": [],
      "payable": false,
      "stateMutability": "nonpayable",
      "type": "function"
    },
    {
      "constant": true,
      "inputs": [
        {
          "name": "_buyer",
          "type": "address"
        }
      ],
      "name": "checkSubscription",
      "outputs": [
        {
          "name": "_remainingFunds",
          "type": "uint256"
        },
        {
          "name": "_numCollected",
          "type": "uint256"
        },
        {
          "name": "_subscriptionStart",
          "type": "uint256"
        }
      ],
      "payable": false,
      "stateMutability": "view",
      "type": "function"
    }
  ],
  "bytecode": "0x608060405234801561001057600080fd5b50604051608080610a6d83398101806040528101908080519060200190929190805190602001909291908051906020019092919080519060200190929190505050336000806101000a81548173ffffffffffffffffffffffffffffffffffffffff021916908373ffffffffffffffffffffffffffffffffffffffff160217905550836001819055508260028190555081600060146101000a81548160ff021916908315150217905550806003819055505050505061099a806100d36000396000f300608060405260043610610099576000357c0100000000000000000000000000000000000000000000000000000000900463ffffffff1680632279fa4c1461009e57806324e9edb0146100c95780632718b175146100e05780634f62647e146100ea5780636fa9eea21461014f5780638da5cb5b14610166578063a386203e146101bd578063d875cf96146101ec578063e73faa2d14610217575b600080fd5b3480156100aa57600080fd5b506100b3610242565b6040518082815260200191505060405180910390f35b3480156100d557600080fd5b506100de610248565b005b6100e8610388565b005b3480156100f657600080fd5b5061012b600480360381019080803573ffffffffffffffffffffffffffffffffffffffff1690602001909291905050506105a8565b60405180848152602001838152602001828152602001935050505060405180910390f35b34801561015b57600080fd5b50610164610693565b005b34801561017257600080fd5b5061017b6108eb565b604051808273ffffffffffffffffffffffffffffffffffffffff1673ffffffffffffffffffffffffffffffffffffffff16815260200191505060405180910390f35b3480156101c957600080fd5b506101d2610910565b604051808215151515815260200191505060405180910390f35b3480156101f857600080fd5b50610201610923565b6040518082815260200191505060405180910390f35b34801561022357600080fd5b5061022c610929565b6040518082815260200191505060405180910390f35b60025481565b6000600460003373ffffffffffffffffffffffffffffffffffffffff1673ffffffffffffffffffffffffffffffffffffffff16815260200190815260200160002090508060020160009054906101000a900473ffffffffffffffffffffffffffffffffffffffff1673ffffffffffffffffffffffffffffffffffffffff163373ffffffffffffffffffffffffffffffffffffffff161415156102e957600080fd5b600060149054906101000a900460ff16151561030457600080fd5b600460003373ffffffffffffffffffffffffffffffffffffffff1673ffffffffffffffffffffffffffffffffffffffff16815260200190815260200160002060008082016000905560018201600090556002820160006101000a81549073ffffffffffffffffffffffffffffffffffffffff02191690556003820160009055505050565b6000600254600154023414151561039e57600080fd5b6000600460003373ffffffffffffffffffffffffffffffffffffffff1673ffffffffffffffffffffffffffffffffffffffff168152602001908152602001600020600101541415156103ef57600080fd5b600460003373ffffffffffffffffffffffffffffffffffffffff1673ffffffffffffffffffffffffffffffffffffffff1681526020019081526020016000209050428160010181905550338160020160006101000a81548173ffffffffffffffffffffffffffffffffffffffff021916908373ffffffffffffffffffffffffffffffffffffffff16021790555034816003018190555060053390806001815401808255809150509060018203906000526020600020016000909192909190916101000a81548173ffffffffffffffffffffffffffffffffffffffff021916908373ffffffffffffffffffffffffffffffffffffffff160217905550507f9f98f15a0f8f73b40eeacd05b6e45153877e7a657a5c88b40e4411cc84b8c94060025460015402600254600060149054906101000a900460ff168460020160009054906101000a900473ffffffffffffffffffffffffffffffffffffffff1660405180858152602001848152602001831515151581526020018273ffffffffffffffffffffffffffffffffffffffff1673ffffffffffffffffffffffffffffffffffffffff16815260200194505050505060405180910390a150565b60008060006105b561092f565b600460003373ffffffffffffffffffffffffffffffffffffffff1673ffffffffffffffffffffffffffffffffffffffff1681526020019081526020016000206080604051908101604052908160008201548152602001600182015481526020016002820160009054906101000a900473ffffffffffffffffffffffffffffffffffffffff1673ffffffffffffffffffffffffffffffffffffffff1673ffffffffffffffffffffffffffffffffffffffff1681526020016003820154815250509050806060015193508060000151925080602001519150509193909250565b6000806000809054906101000a900473ffffffffffffffffffffffffffffffffffffffff1673ffffffffffffffffffffffffffffffffffffffff163373ffffffffffffffffffffffffffffffffffffffff161415156106f157600080fd5b600091505b6005805490508210156108e7576004600060058481548110151561071657fe5b9060005260206000200160009054906101000a900473ffffffffffffffffffffffffffffffffffffffff1673ffffffffffffffffffffffffffffffffffffffff1673ffffffffffffffffffffffffffffffffffffffff168152602001908152602001600020905060008160010154141580156107a057508060000154600354028160010154014210155b80156107b157506002548160000154105b156108da57806000016000815480929190600101919050555060015481600301600082825403925050819055506000809054906101000a900473ffffffffffffffffffffffffffffffffffffffff1673ffffffffffffffffffffffffffffffffffffffff166108fc6001549081150290604051600060405180830381858888f19350505050158015610847573d6000803e3d6000fd5b507f608d3c5cdcdc4c8914fabf7fa84de28eb90d857bcd912ebf50e01c203b8927446001548260020160009054906101000a900473ffffffffffffffffffffffffffffffffffffffff16604051808381526020018273ffffffffffffffffffffffffffffffffffffffff1673ffffffffffffffffffffffffffffffffffffffff1681526020019250505060405180910390a15b81806001019250506106f6565b5050565b6000809054906101000a900473ffffffffffffffffffffffffffffffffffffffff1681565b600060149054906101000a900460ff1681565b60035481565b60015481565b6080604051908101604052806000815260200160008152602001600073ffffffffffffffffffffffffffffffffffffffff1681526020016000815250905600a165627a7a72305820c690b4cf8a38496d7dd103c9bb4523c87a413d1fdbf9241857659058726f9e2e0029",
  "source": "pragma solidity ^0.4.22;\nimport \"./Ownable.sol\";\n\ncontract Subscription is Ownable {\n\n    struct Funder {\n        address addr;\n        uint amount;\n    }\n\n    struct SubscriptionModel {\n        uint numCollected;\n        uint subscriptionStart;\n        address buyer;\n        uint remainingFunds;\n    }\n\n    bool public cancellable;\n    uint public unitPrice;\n    uint public numPayments;\n    uint public unitTime;\n\n    mapping (address => SubscriptionModel) subscribers;\n    address[] subscriberAddresses;\n\n    event SubscriptionCharged(uint amount, address buyer);\n    event SubscriptionStarted(uint totalAmount, uint numPayments, bool cancellable, address buyer);\n    event SubscriptionEnded(uint totalAmount, address buyer);\n\n    constructor(uint _unitPrice, uint _numPayments, bool _cancellable, uint _unitTime) public {\n        unitPrice = _unitPrice;\n        numPayments = _numPayments;\n        cancellable = _cancellable;\n        unitTime = _unitTime;\n    }\n\n    function buySubscription() public payable {\n        require(msg.value == unitPrice * numPayments);\n        require(subscribers[msg.sender].subscriptionStart == 0);\n        SubscriptionModel storage newSub = subscribers[msg.sender];\n        newSub.subscriptionStart = now;\n        newSub.buyer = msg.sender;\n        newSub.remainingFunds = msg.value;\n\n        subscriberAddresses.push(msg.sender);\n\n        emit SubscriptionStarted(unitPrice * numPayments, numPayments, cancellable, newSub.buyer);\n    }\n\n    function collectSubscription() public onlyOwner {\n\n        for (uint i=0; i<subscriberAddresses.length; i++) {\n            SubscriptionModel storage sub = subscribers[subscriberAddresses[i]];\n            if ((sub.subscriptionStart != 0) && (now >= sub.subscriptionStart + (unitTime * sub.numCollected)) && (sub.numCollected < numPayments)) {\n                sub.numCollected++;\n                sub.remainingFunds -= unitPrice;\n                owner.transfer(unitPrice);\n                emit SubscriptionCharged(unitPrice, sub.buyer);\n            }\n        }\n\n\n    }\n\n    function cancelSubscription() public {\n        SubscriptionModel storage sub = subscribers[msg.sender];\n        require(msg.sender == sub.buyer);\n        require(cancellable);\n\n        // TODO: fix remaining balance\n//        sub.remainingBalance = 0;\n//        sub.buyer.transfer(sub.remainingBalance);\n\n        delete subscribers[msg.sender];\n    }\n\n    function checkSubscription(address _buyer) public constant returns (uint _remainingFunds, uint _numCollected, uint _subscriptionStart) {\n        SubscriptionModel memory sub = subscribers[msg.sender];\n        _remainingFunds = sub.remainingFunds;\n        _numCollected = sub.numCollected;\n        _subscriptionStart = sub.subscriptionStart;\n    }\n\n}",
  "sourcePath": "/Users/WilliamHuang/Developer/Job-Development/BitNation/specs/Initial Dapps/contracts/Subscription.sol",
  "compiler": {
    "name": "solc",
    "version": "0.4.24+commit.e67f0147.Emscripten.clang"
  },
  "schemaVersion": "2.0.0",
  "updatedAt": "2018-06-30T00:07:05.287Z"
}