{
  "contractName": "Subscription",
  "abi": [
    {
      "constant": true,
      "inputs": [],
      "name": "numPayments",
      "outputs": [
        {
          "name": "",
          "type": "uint256"
        }
      ],
      "payable": false,
      "stateMutability": "view",
      "type": "function"
    },
    {
      "constant": true,
      "inputs": [],
      "name": "buyer",
      "outputs": [
        {
          "name": "",
          "type": "address"
        }
      ],
      "payable": false,
      "stateMutability": "view",
      "type": "function"
    },
    {
      "constant": true,
      "inputs": [],
      "name": "owner",
      "outputs": [
        {
          "name": "",
          "type": "address"
        }
      ],
      "payable": false,
      "stateMutability": "view",
      "type": "function"
    },
    {
      "constant": true,
      "inputs": [],
      "name": "cancellable",
      "outputs": [
        {
          "name": "",
          "type": "bool"
        }
      ],
      "payable": false,
      "stateMutability": "view",
      "type": "function"
    },
    {
      "constant": true,
      "inputs": [],
      "name": "subscriptionStart",
      "outputs": [
        {
          "name": "",
          "type": "uint256"
        }
      ],
      "payable": false,
      "stateMutability": "view",
      "type": "function"
    },
    {
      "constant": true,
      "inputs": [],
      "name": "unitTime",
      "outputs": [
        {
          "name": "",
          "type": "uint256"
        }
      ],
      "payable": false,
      "stateMutability": "view",
      "type": "function"
    },
    {
      "constant": true,
      "inputs": [],
      "name": "unitPrice",
      "outputs": [
        {
          "name": "",
          "type": "uint256"
        }
      ],
      "payable": false,
      "stateMutability": "view",
      "type": "function"
    },
    {
      "constant": true,
      "inputs": [],
      "name": "numCollected",
      "outputs": [
        {
          "name": "",
          "type": "uint256"
        }
      ],
      "payable": false,
      "stateMutability": "view",
      "type": "function"
    },
    {
      "inputs": [
        {
          "name": "_unitPrice",
          "type": "uint256"
        },
        {
          "name": "_numPayments",
          "type": "uint256"
        },
        {
          "name": "_cancellable",
          "type": "bool"
        },
        {
          "name": "_unitTime",
          "type": "uint256"
        }
      ],
      "payable": false,
      "stateMutability": "nonpayable",
      "type": "constructor"
    },
    {
      "anonymous": false,
      "inputs": [
        {
          "indexed": false,
          "name": "amount",
          "type": "uint256"
        },
        {
          "indexed": false,
          "name": "buyer",
          "type": "address"
        }
      ],
      "name": "SubscriptionCharged",
      "type": "event"
    },
    {
      "anonymous": false,
      "inputs": [
        {
          "indexed": false,
          "name": "totalAmount",
          "type": "uint256"
        },
        {
          "indexed": false,
          "name": "numPayments",
          "type": "uint256"
        },
        {
          "indexed": false,
          "name": "cancellable",
          "type": "bool"
        },
        {
          "indexed": false,
          "name": "buyer",
          "type": "address"
        }
      ],
      "name": "SubscriptionStarted",
      "type": "event"
    },
    {
      "anonymous": false,
      "inputs": [
        {
          "indexed": false,
          "name": "totalAmount",
          "type": "uint256"
        },
        {
          "indexed": false,
          "name": "buyer",
          "type": "address"
        }
      ],
      "name": "SubscriptionEnded",
      "type": "event"
    },
    {
      "constant": false,
      "inputs": [],
      "name": "buySubscription",
      "outputs": [],
      "payable": true,
      "stateMutability": "payable",
      "type": "function"
    },
    {
      "constant": false,
      "inputs": [],
      "name": "collectSubscription",
      "outputs": [],
      "payable": false,
      "stateMutability": "nonpayable",
      "type": "function"
    },
    {
      "constant": false,
      "inputs": [],
      "name": "cancelSubscription",
      "outputs": [],
      "payable": false,
      "stateMutability": "nonpayable",
      "type": "function"
    }
  ],
  "bytecode": "0x608060405234801561001057600080fd5b506040516080806107e083398101806040528101908080519060200190929190805190602001909291908051906020019092919080519060200190929190505050336000806101000a81548173ffffffffffffffffffffffffffffffffffffffff021916908373ffffffffffffffffffffffffffffffffffffffff160217905550836001819055508260028190555081600460006101000a81548160ff021916908315150217905550806006819055505050505061070d806100d36000396000f3006080604052600436106100af576000357c0100000000000000000000000000000000000000000000000000000000900463ffffffff1680632279fa4c146100b457806324e9edb0146100df5780632718b175146100f65780636fa9eea2146101005780637150d8ae146101175780638da5cb5b1461016e578063a386203e146101c5578063a4d03295146101f4578063d875cf961461021f578063e73faa2d1461024a578063ece44b8114610275575b600080fd5b3480156100c057600080fd5b506100c96102a0565b6040518082815260200191505060405180910390f35b3480156100eb57600080fd5b506100f46102a6565b005b6100fe61039f565b005b34801561010c57600080fd5b506101156104c6565b005b34801561012357600080fd5b5061012c61066b565b604051808273ffffffffffffffffffffffffffffffffffffffff1673ffffffffffffffffffffffffffffffffffffffff16815260200191505060405180910390f35b34801561017a57600080fd5b50610183610691565b604051808273ffffffffffffffffffffffffffffffffffffffff1673ffffffffffffffffffffffffffffffffffffffff16815260200191505060405180910390f35b3480156101d157600080fd5b506101da6106b6565b604051808215151515815260200191505060405180910390f35b34801561020057600080fd5b506102096106c9565b6040518082815260200191505060405180910390f35b34801561022b57600080fd5b506102346106cf565b6040518082815260200191505060405180910390f35b34801561025657600080fd5b5061025f6106d5565b6040518082815260200191505060405180910390f35b34801561028157600080fd5b5061028a6106db565b6040518082815260200191505060405180910390f35b60025481565b600760009054906101000a900473ffffffffffffffffffffffffffffffffffffffff1673ffffffffffffffffffffffffffffffffffffffff163373ffffffffffffffffffffffffffffffffffffffff1614151561030257600080fd5b600460009054906101000a900460ff16151561031d57600080fd5b600760009054906101000a900473ffffffffffffffffffffffffffffffffffffffff1673ffffffffffffffffffffffffffffffffffffffff166108fc3073ffffffffffffffffffffffffffffffffffffffff16319081150290604051600060405180830381858888f1935050505015801561039c573d6000803e3d6000fd5b50565b60025460015402341415156103b357600080fd5b60006005541415156103c457600080fd5b4260058190555033600760006101000a81548173ffffffffffffffffffffffffffffffffffffffff021916908373ffffffffffffffffffffffffffffffffffffffff1602179055507f9f98f15a0f8f73b40eeacd05b6e45153877e7a657a5c88b40e4411cc84b8c94060025460015402600254600460009054906101000a900460ff16600760009054906101000a900473ffffffffffffffffffffffffffffffffffffffff1660405180858152602001848152602001831515151581526020018273ffffffffffffffffffffffffffffffffffffffff1673ffffffffffffffffffffffffffffffffffffffff16815260200194505050505060405180910390a1565b6000809054906101000a900473ffffffffffffffffffffffffffffffffffffffff1673ffffffffffffffffffffffffffffffffffffffff163373ffffffffffffffffffffffffffffffffffffffff1614151561052157600080fd5b60006005541415151561053357600080fd5b60025460035410151561054557600080fd5b6003546006540260055401421015151561055e57600080fd5b6003600081548092919060010191905055506000809054906101000a900473ffffffffffffffffffffffffffffffffffffffff1673ffffffffffffffffffffffffffffffffffffffff166108fc6001549081150290604051600060405180830381858888f193505050501580156105d9573d6000803e3d6000fd5b507f608d3c5cdcdc4c8914fabf7fa84de28eb90d857bcd912ebf50e01c203b892744600154600760009054906101000a900473ffffffffffffffffffffffffffffffffffffffff16604051808381526020018273ffffffffffffffffffffffffffffffffffffffff1673ffffffffffffffffffffffffffffffffffffffff1681526020019250505060405180910390a1565b600760009054906101000a900473ffffffffffffffffffffffffffffffffffffffff1681565b6000809054906101000a900473ffffffffffffffffffffffffffffffffffffffff1681565b600460009054906101000a900460ff1681565b60055481565b60065481565b60015481565b600354815600a165627a7a723058201aca7f292932ab20e40f3caaf16229bc3c592f589fc74347205d82fb6d689eac0029",
  "source": "pragma solidity ^0.4.22;\nimport \"./Ownable.sol\";\n\ncontract Subscription is Ownable {\n\n    uint public unitPrice;\n    uint public numPayments;\n    uint public numCollected;\n    bool public cancellable;\n    uint public subscriptionStart;\n    uint public unitTime;\n    address public buyer;\n\n    event SubscriptionCharged(uint amount, address buyer);\n    event SubscriptionStarted(uint totalAmount, uint numPayments, bool cancellable, address buyer);\n    event SubscriptionEnded(uint totalAmount, address buyer);\n\n    constructor(uint _unitPrice, uint _numPayments, bool _cancellable, uint _unitTime) public {\n        unitPrice = _unitPrice;\n        numPayments = _numPayments;\n        cancellable = _cancellable;\n        unitTime = _unitTime;\n    }\n\n    function buySubscription() public payable {\n        require(msg.value == unitPrice * numPayments);\n        require(subscriptionStart == 0);\n        subscriptionStart = now;\n        buyer = msg.sender;\n\n        emit SubscriptionStarted(unitPrice * numPayments, numPayments, cancellable, buyer);\n    }\n\n    function collectSubscription() public onlyOwner {\n        require(subscriptionStart != 0);\n        require(numCollected < numPayments);\n        require(now >= subscriptionStart + (unitTime * numCollected));\n\n        numCollected++;\n\n        owner.transfer(unitPrice);\n\n        emit SubscriptionCharged(unitPrice, buyer);\n\n    }\n\n    function cancelSubscription() public {\n        require(msg.sender == buyer);\n        require(cancellable);\n\n        buyer.transfer(address(this).balance);\n    }\n\n}",
  "sourcePath": "/Users/WilliamHuang/Developer/Job-Development/BitNation/Initial Dapps/contracts/Subscription.sol",
  "compiler": {
    "name": "solc",
    "version": "0.4.24+commit.e67f0147.Emscripten.clang"
  },
  "schemaVersion": "2.0.0",
  "updatedAt": "2018-05-22T22:57:42.372Z"
}